:020000040800F2
:1000000000500020C57F000811AC000815AC0008A6
:1000100019AC00081DAC000821AC0008000000006D
:1000200000000000000000000000000025AC0008F7
:1000300029AC0008000000002DAC00081580000865
:10004000158000081580000815800008158000083C
:10005000158000081580000815800008158000082C
:10006000158000081580000815800008158000081C
:10007000158000081580000815800008158000080C
:1000800015800008158000081580000815800008FC
:1000900031AC00081580000815800008D1920008D6
:1000A00015800008158000081580000815800008DC
:1000B00019810008B9830008158000081580000820
:1000C00015800008158000081580000815800008BC
:1000D00015800008158000081580000815800008AC
:1000E000B1300008158000081580000800000000ED
:1000F0000000000000000000000000000000000000
:0C01000000000000000000005FF808F1A3
:1001100010B5054C237833B9044B13B10448AFF341
:1001200000800123237010BDE401002000000000C6
:10013000F0BD000808B5034B1BB103490348AFF3FA
:10014000008008BD00000000E8010020F0BD0008AC
:1001500081F0004102E000BF83F0004330B54FEA78
:1001600041044FEA430594EA050F08BF90EA020FE5
:100170001FBF54EA000C55EA020C7FEA645C7FEA78
:10018000655C00F0E2804FEA5454D4EB5555B8BF9B
:100190006D420CDD2C4480EA020281EA030382EA0C
:1001A000000083EA010180EA020281EA0303362D9E
:1001B00088BF30BD11F0004F4FEA01314FF4801C71
:1001C0004CEA113102D0404261EB410113F0004F83
:1001D0004FEA03334CEA133302D0524263EB43033A
:1001E00094EA050F00F0A780A4F10104D5F1200ED8
:1001F0000DDB02FA0EFC22FA05F2801841F1000133
:1002000003FA0EF2801843FA05F359410EE0A5F106
:1002100020050EF1200E012A03FA0EFC28BF4CF037
:10022000020C43FA05F3C01851EBE37101F00045ED
:1002300007D54FF0000EDCF1000C7EEB00006EEBFA
:100240000101B1F5801F1BD3B1F5001F0CD3490884
:100250005FEA30004FEA3C0C04F101044FEA4452DB
:1002600012F5800F80F09A80BCF1004F08BF5FEA62
:10027000500C50F1000041EB045141EA050130BD42
:100280005FEA4C0C404141EB010111F4801FA4F1E5
:100290000104E9D191F0000F04BF01460020B1FA3A
:1002A00081F308BF2033A3F10B03B3F120020CDA72
:1002B0000C3208DD02F1140CC2F10C0201FA0CF050
:1002C00021FA02F10CE002F11402D8BFC2F1200CB5
:1002D00001FA02F120FA0CFCDCBF41EA0C0190406B
:1002E000E41AA2BF01EB0451294330BD6FEA0404B4
:1002F0001F3C1CDA0C340EDC04F11404C4F120029F
:1003000020FA04F001FA02F340EA030021FA04F3B0
:1003100045EA030130BDC4F10C04C4F1200220FA07
:1003200002F001FA04F340EA0300294630BD21FA45
:1003300004F0294630BD94F0000F83F4801306BF0B
:1003400081F480110134013D4EE77FEA645C18BFFF
:100350007FEA655C29D094EA050F08BF90EA020F96
:1003600005D054EA000C04BF1946104630BD91EA8E
:10037000030F1EBF0021002030BD5FEA545C05D191
:100380004000494128BF41F0004130BD14F58004D0
:100390003CBF01F5801130BD01F0004545F0FE4144
:1003A00041F470014FF0000030BD7FEA645C1ABF79
:1003B000194610467FEA655C1CBF0B46024650EAB0
:1003C000013406BF52EA033591EA030F41F40021DC
:1003D00030BD00BF90F0000F04BF0021704730B562
:1003E0004FF4806404F132044FF000054FF0000137
:1003F00050E700BF90F0000F04BF0021704730B5F8
:100400004FF4806404F1320410F0004548BF4042CC
:100410004FF000013EE700BF42004FEAE2014FEA21
:1004200031014FEA02701FBF12F07F4393F07F4FFC
:1004300081F06051704792F0000F14BF93F07F4F2E
:10044000704730B54FF4607401F0004521F0004171
:1004500020E700BF50EA010208BF704730B54FF0F7
:1004600000050AE050EA010208BF704730B511F0FC
:10047000004502D5404261EB41014FF4806404F134
:1004800032045FEA915C3FF4DCAE4FF003025FEAB6
:10049000DC0C18BF03325FEADC0C18BF033202EB3E
:1004A000DC02C2F1200300FA03FC20FA02F001FA98
:1004B00003FE40EA0E0021FA02F11444C1E600BF37
:1004C00070B54FF0FF0C4CF4E06C1CEA11541DBFEA
:1004D0001CEA135594EA0C0F95EA0C0F00F0DEF8B5
:1004E0002C4481EA030621EA4C5123EA4C5350EA9A
:1004F000013518BF52EA033541F4801143F48013EB
:1005000038D0A0FB02CE4FF00005E1FB02E506F07B
:100510000042E0FB03E54FF00006E1FB03569CF0D0
:10052000000F18BF4EF0010EA4F1FF04B6F5007FD6
:1005300064F5407404D25FEA4E0E6D4146EB060648
:1005400042EAC62141EA55514FEAC52040EA5E50D1
:100550004FEACE2EB4F1FD0C88BFBCF5E06F1ED87B
:10056000BEF1004F08BF5FEA500E50F1000041EBB2
:10057000045170BD06F0004646EA010140EA02005F
:1005800081EA0301B4EB5C04C2BFD4EB0C0541EA81
:10059000045170BD41F480114FF0000E013C00F396
:1005A000AB8014F1360FDEBF002001F0004170BDBA
:1005B000C4F10004203C35DA0C341BDC04F11404D3
:1005C000C4F1200500FA05F320FA04F001FA05F25F
:1005D00040EA020001F0004221F0004110EBD3702C
:1005E00021FA04F642EB06015EEA430E08BF20EA58
:1005F000D37070BDC4F10C04C4F1200500FA04F3FB
:1006000020FA05F001FA04F240EA020001F000418C
:1006100010EBD37041F100015EEA430E08BF20EAFF
:10062000D37070BDC4F1200500FA05F24EEA020E47
:1006300020FA04F301FA05F243EA020321FA04F076
:1006400001F0004121FA04F220EA020000EBD3702D
:100650005EEA430E08BF20EAD37070BD94F0000F2D
:100660000FD101F00046400041EB010111F4801F61
:1006700008BF013CF7D041EA060195F0000F18BF12
:10068000704703F00046520043EB030313F4801F4E
:1006900008BF013DF7D043EA0603704794EA0C0F08
:1006A0000CEA135518BF95EA0C0F0CD050EA41061E
:1006B00018BF52EA4306D1D181EA030101F000419B
:1006C0004FF0000070BD50EA410606BF10461946C3
:1006D00052EA430619D094EA0C0F02D150EA0136CF
:1006E00013D195EA0C0F05D152EA03361CBF104610
:1006F00019460AD181EA030101F0004141F0FE41AF
:1007000041F470014FF0000070BD41F0FE4141F432
:10071000780170BD70B54FF0FF0C4CF4E06C1CEA32
:1007200011541DBF1CEA135594EA0C0F95EA0C0FE7
:1007300000F0A7F8A4EB050481EA030E52EA0335A2
:100740004FEA013100F088804FEA03334FF08055C3
:1007500045EA131343EA12634FEA022245EA1115F0
:1007600045EA10654FEA00260EF000419D4208BFA1
:10077000964244F1FD0404F5407402D25B084FEA4E
:100780003202B61A65EB03055B084FEA32024FF4FA
:1007900080104FF4002CB6EB020E75EB030E22BF57
:1007A000B61A754640EA0C005B084FEA3202B6EB17
:1007B000020E75EB030E22BFB61A754640EA5C00C6
:1007C0005B084FEA3202B6EB020E75EB030E22BF56
:1007D000B61A754640EA9C005B084FEA3202B6EB57
:1007E000020E75EB030E22BFB61A754640EADC0016
:1007F00055EA060E18D04FEA051545EA16754FEA78
:1008000006164FEAC30343EA52734FEAC2025FEA95
:100810001C1CC0D111F4801F0BD141EA00014FF024
:1008200000004FF0004CB6E711F4801F04BF0143F5
:100830000020B4F1FD0C88BFBCF5E06F3FF6AFAE11
:10084000B5EB030C04BFB6EB020C5FEA500C50F1A1
:10085000000041EB045170BD0EF0004E4EEA113124
:1008600014EB5C04C2BFD4EB0C0541EA045170BD2B
:1008700041F480114FF0000E013C90E645EA060E6F
:100880008DE60CEA135594EA0C0F08BF95EA0C0F9D
:100890003FF43BAF94EA0C0F0AD150EA01347FF4E5
:1008A00034AF95EA0C0F7FF425AF104619462CE7BC
:1008B00095EA0C0F06D152EA03353FF4FDAE10461F
:1008C000194622E750EA410618BF52EA43067FF470
:1008D000C5AE50EA41047FF40DAF52EA43057FF400
:1008E000EBAE12E74FF0FF3C06E000BF4FF0010C0B
:1008F00002E000BF4FF0010C4DF804CD4FEA410C6F
:100900007FEA6C5C4FEA430C18BF7FEA6C5C1BD03B
:1009100001B050EA410C0CBF52EA430C91EA030FBC
:1009200002BF90EA020F0020704710F1000F91EA19
:10093000030F58BF994208BF90422CBFD8176FEAE7
:10094000E37040F0010070474FEA410C7FEA6C5CB5
:1009500002D150EA013C07D14FEA430C7FEA6C5CBC
:10096000D6D152EA033CD3D05DF8040B704700BFE8
:100970008446104662468C461946634600E000BF36
:1009800001B5FFF7B7FF002848BF10F1000F01BD08
:100990004DF808EDFFF7F4FF0CBF012000205DF8D3
:1009A00008FB00BF4DF808EDFFF7EAFF34BF012058
:1009B00000205DF808FB00BF4DF808EDFFF7E0FFF1
:1009C00094BF012000205DF808FB00BF4DF808ED42
:1009D000FFF7CEFF94BF012000205DF808FB00BFA9
:1009E0004DF808EDFFF7C4FF34BF012000205DF88B
:1009F00008FB00BF4FEA4102B2F1E04324BFB3F568
:100A0000001CDCF1FE5C0DD901F0004C4FEAC00285
:100A10004CEA5070B2F1004F40EB830008BF20F069
:100A20000100704711F0804F21D113F13872BCBF23
:100A300001F00040704741F480114FEA5252C2F178
:100A40001802C2F1200C10FA0CF320FA02F018BFC1
:100A500040F001004FEAC1234FEAD32303FA0CFC14
:100A600040EA0C0023FA02F34FEA4303CCE77FEAA3
:100A7000625307D150EA01331EBF4FF0FE4040F4ED
:100A80004000704701F0004040F0FE4040F400009C
:100A9000704700BF80F0004002E000BF81F00041DD
:100AA00042001FBF5FEA410392EA030F7FEA226C14
:100AB0007FEA236C6AD04FEA1262D2EB1363C1BFA4
:100AC000D218414048404140B8BF5B42192B88BF13
:100AD000704710F0004F40F4000020F07F4018BF36
:100AE000404211F0004F41F4000121F07F4118BF56
:100AF000494292EA030F3FD0A2F1010241FA03FCFE
:100B000010EB0C00C3F1200301FA03F100F00043E5
:100B100002D5494260EB4000B0F5000F13D3B0F1AD
:100B2000807F06D340084FEA310102F10102FE2A1C
:100B300051D2B1F1004F40EBC25008BF20F001008C
:100B400040EA03007047490040EB000010F4000F3A
:100B5000A2F10102EDD1B0FA80FCACF1080CB2EBCD
:100B60000C0200FA0CF0AABF00EBC250524218432C
:100B7000BCBFD0401843704792F0000F81F40001D1
:100B800006BF80F400000132013BB5E74FEA4103A4
:100B90007FEA226C18BF7FEA236C21D092EA030F10
:100BA00004D092F0000F08BF0846704790EA010F8A
:100BB0001CBF0020704712F07F4F04D1400028BFB7
:100BC00040F00040704712F100723CBF00F5000099
:100BD000704700F0004343F0FE4040F400007047CF
:100BE0007FEA226216BF08467FEA2363014642027B
:100BF00006BF5FEA412390EA010F40F4800070478E
:100C00004FF0000304E000BF10F0004348BF404233
:100C10005FEA000C08BF704743F0964301464FF06F
:100C200000001CE050EA010208BF70474FF00003CB
:100C30000AE000BF50EA010208BF704711F000430C
:100C400002D5404261EB41015FEA010C02BF8446DC
:100C50000146002043F0B64308BFA3F18053A3F53B
:100C60000003BCFA8CF2083AA3EBC25310DB01FA82
:100C700002FC634400FA02FCC2F12002BCF1004F06
:100C800020FA02F243EB020008BF20F00100704797
:100C900002F1200201FA02FCC2F1200250EA4C00EB
:100CA00021FA02F243EB020008BF20EADC70704731
:100CB0004FF0FF0C1CEAD0521EBF1CEAD15392EA3F
:100CC0000C0F93EA0C0F6FD01A4480EA010C40021B
:100CD00018BF5FEA41211ED04FF0006343EA501075
:100CE00043EA5111A0FB01310CF00040B1F5000FB7
:100CF0003EBF490041EAD3715B0040EA010062F166
:100D00007F02FD2A1DD8B3F1004F40EBC25008BF4F
:100D100020F00100704790F0000F0CF0004C08BF6D
:100D200049024CEA502040EA51207F3AC2BFD2F13A
:100D3000FF0340EAC250704740F400004FF0000348
:100D4000013A5DDC12F1190FDCBF00F00040704782
:100D5000C2F10002410021FA02F1C2F1200200FAC0
:100D600002FC5FEA310040F1000053EA4C0308BF87
:100D700020EADC70704792F0000F00F0004C02BFD8
:100D8000400010F4000F013AF9D040EA0C0093F053
:100D9000000F01F0004C02BF490011F4000F013BAD
:100DA000F9D041EA0C018FE70CEAD15392EA0C0F1B
:100DB00018BF93EA0C0F0AD030F0004C18BF31F086
:100DC000004CD8D180EA010000F00040704790F05C
:100DD000000F17BF90F0004F084691F0000F91F000
:100DE000004F14D092EA0C0F01D142020FD193EAC6
:100DF0000C0F03D14B0218BF084608D180EA01004E
:100E000000F0004040F0FE4040F40000704740F029
:100E1000FE4040F4400070474FF0FF0C1CEAD052F7
:100E20001EBF1CEAD15392EA0C0F93EA0C0F69D053
:100E3000A2EB030280EA010C49024FEA402037D0BE
:100E40004FF0805343EA111143EA10130CF00040B5
:100E50008B4238BF5B0042F17D024FF4000C8B42A5
:100E600024BF5B1A40EA0C00B3EB510F24BFA3EB85
:100E7000510340EA5C00B3EB910F24BFA3EB910355
:100E800040EA9C00B3EBD10F24BFA3EBD10340EAAF
:100E9000DC001B0118BF5FEA1C1CE0D1FD2A3FF6F5
:100EA00050AF8B4240EBC25008BF20F001007047AA
:100EB0000CF0004C4CEA50207F32C2BFD2F1FF034D
:100EC00040EAC250704740F400004FF00003013A7E
:100ED00037E792F0000F00F0004C02BF400010F422
:100EE000000F013AF9D040EA0C0093F0000F01F036
:100EF000004C02BF490011F4000F013BF9D041EA58
:100F00000C0195E70CEAD15392EA0C0F08D142028A
:100F10007FF47DAF93EA0C0F7FF470AF084676E75D
:100F200093EA0C0F04D14B023FF44CAF08466EE736
:100F300030F0004C18BF31F0004CCAD130F0004204
:100F40007FF45CAF31F000437FF43CAF5FE700BF5C
:100F50004FF0FF3C06E000BF4FF0010C02E000BF85
:100F60004FF0010C4DF804CD4FEA40024FEA410327
:100F70007FEA226C18BF7FEA236C11D001B052EADD
:100F8000530C18BF90EA010F58BFB2EB030088BFA3
:100F9000C81738BF6FEAE17018BF40F00100704712
:100FA0007FEA226C02D15FEA402C05D17FEA236CF4
:100FB000E4D15FEA412CE1D05DF8040B704700BF3B
:100FC000844608466146FFE70FB5FFF7C9FF0028D2
:100FD00048BF10F1000F0FBD4DF808EDFFF7F4FF0B
:100FE0000CBF012000205DF808FB00BF4DF808EDA4
:100FF000FFF7EAFF34BF012000205DF808FB00BFC7
:101000004DF808EDFFF7E0FF94BF012000205DF8E8
:1010100008FB00BF4DF808EDFFF7D2FF94BF012099
:1010200000205DF808FB00BF4DF808EDFFF7C8FF92
:1010300034BF012000205DF808FB00BF4FEA4002EA
:101040004FEA41037FEA226C02D15FEA402C08D1CB
:101050007FEA236C02D15FEA412C02D14FF00000FD
:1010600070474FF0010070474FEA4002B2F1FE4F67
:101070000FD34FF09E03B3EB12620DD94FEA00235A
:1010800043F0004310F0004F23FA02F018BF404233
:1010900070474FF00000704712F1610F01D142021A
:1010A00005D110F0004008BF6FF0004070474FF0CE
:1010B0000000704742000ED2B2F1FE4F0BD34FF04A
:1010C0009E03B3EB126209D44FEA002343F00043BE
:1010D00023FA02F070474FF00000704712F1610FE1
:1010E00001D1420202D14FF0FF3070474FF00000B3
:1010F000704700BF40F0BF60024B40F40030D86042
:10110000704700BF00ED00E0C3785BB901210378B0
:1011100014485A0903F01F03203201FA03F340F880
:1011200022307047104B0F21DA6870B4D24301248B
:1011300085784378C2F30222C2F1040621FA02F252
:101140002A40B34001781343064A1B0101F01F05F2
:101150005018DBB2AC4080F80033490942F8214016
:1011600070BC704700E100E000ED00E0837933B32C
:1011700030B404681B4BE1431D6802790D401D60CB
:101180005D6802F180422940596002F5823215689B
:1011900041792C43146002689C68D04304409C60F1
:1011A000DC68102900EA0400D86013D030BC01F1DB
:1011B000804303F5823319680A431A607047037944
:1011C000016803F1804303F582331A6822EA0102C1
:1011D0001A607047996830BC11439960D9680A4316
:1011E000DA60704700040140054B1A685B690340F0
:1011F00004D0024214BF01200020704718467047F7
:1012000000040140014B5861704700BF00040140D9
:10121000024B0349034A59605A607047002002405C
:1012200023016745AB89EFCD3849CB6813F0010F37
:10123000CB6803D15B0738D502207047DB072CD47D
:101240004FF43023314AD168490705D50220013BCC
:10125000002B08BF05207047D268D2061AD4012B94
:1012600021D02A4A136943F00203136150611369C4
:1012700043F040031361D36813F0010FD36819D111
:101280005B073BD5022041F6FD71204A13690B40F4
:10129000136170470320013BDAE71D4BCA68D20790
:1012A000D0D5013BFAD105207047CB68D906D8D5F7
:1012B00003207047D90709D4D3685B07E2D4D36809
:1012C00013F0100F14BF03200420DCE7104BD1688B
:1012D000C90708D4D168013B490708D50220002B73
:1012E00008BF0520CFE7013BF1D10520CBE7D2684D
:1012F00012F0100F14BF03200420F0E7D36813F09E
:10130000100F0CBF04200320BDE700BF00200240E7
:10131000FFFF0A0010B4394CE36813F0010FE368D3
:1013200004D15B0738D5022010BC7047DB0729D4F5
:101330004FF40053314AD468640705D50220013BBD
:10134000002B08BF0520EFE7D268D20617D4012B87
:101350001FD02A4A136943F0010313610180D36847
:1013600013F0010FD3681CD15B073FD5022041F673
:10137000FE71224A10BC13690B40136170470320B1
:10138000013BDDE741F6FF73E268D207D2D5013BAE
:10139000FAD1052010BC7047E368DC06D9D50320DC
:1013A000C2E7D90709D4D3685B07DFD4D36813F049
:1013B000100F14BF03200420D9E741F6FF73D16852
:1013C000CC0708D4D168013B490708D50220002B7F
:1013D00008BF0520CBE7013BF1D10520C7E7D26864
:1013E00012F0100F14BF03200420F0E7D36813F0AD
:1013F000100F0CBF04200320B9E700BF00200240FB
:1014000030B4CD78EB0648BF8B7805F00F0448BFA9
:101410001C430B8813F0FF0F32D0482D026800F0F8
:101420008180282D00F0B680D90744BF22F00F023A
:101430002243990744BF22F0F00242EA04125907FE
:1014400044BF22F4706242EA0422190744BF22F426
:10145000704242EA0432D90644BF22F4702242EAC2
:101460000442990644BF22F4700242EA045259062B
:1014700044BF22F0706242EA0462190671D402602D
:10148000FF2B30D9282D42682FD0482D6CD0D9059C
:1014900044BF22F00F0222439D0544BF22F0F00218
:1014A00042EA0412590544BF22F4706242EA04225F
:1014B0001D0544BF22F4704242EA0432D90444BFFD
:1014C00022F4702242EA04429D0444BF22F47002D6
:1014D00042EA0452590444BF22F0706242EA0462B4
:1014E0001D043BD4426030BC7047D90500F1D68062
:1014F0009D0500F1CB80590500F1C0801D0500F16C
:10150000B580D90400F1AA809D0400F19F805904A0
:1015100000F194801B04E5D54FF4004364F31F727F
:101520004361DFE7D90700F1E380990700F1D98033
:10153000590700F1CF80190700F1C580D90600F1E5
:10154000BB80990600F1B180590600F1D7801906D9
:1015500095D5802164F31F72016190E764F31F72D7
:10156000C0E764F31F728AE7D90548D49D053ED4CD
:10157000590534D41D052AD4D9044FD49D0445D42B
:10158000590453D41D04ADD54FF4004364F31F72C6
:101590000361A7E7D90700F1E280990700F1D8803D
:1015A000590700F1CE80190700F1C480D90600F177
:1015B000BA80990600F1B080590600F1A68019069C
:1015C0007FF55DAF802164F31F72416157E74FF4EF
:1015D000006122F4704242EA04320161CCE74FF428
:1015E000806122F4706242EA04220161C2E74FF492
:1015F000007122F0F00242EA04120161B8E74FF4F0
:10160000807122F00F0222430161AFE74FF40051D5
:1016100022F4700242EA04520161B1E74FF48051B2
:1016200022F4702242EA04420161A7E74FF48041AC
:1016300022F0706242EA04620161A3E74FF4804144
:1016400022F0706242EA0462416163E74FF40051A4
:1016500022F4700242EA0452416158E74FF480518B
:1016600022F4702242EA044241614DE74FF40061E6
:1016700022F4704242EA0432416142E74FF4806151
:1016800022F4706242EA0422416137E74FF40071AC
:1016900022F0F00242EA041241612CE74FF480711B
:1016A00022F00F022243416122E7202122F470023E
:1016B00042EA0452016147E7102122F4702242EA13
:1016C000044201613DE7082122F4704242EA0432FB
:1016D000016133E7042122F4706242EA04220161CD
:1016E00029E7022122F0F00242EA041201611FE719
:1016F000012122F00F022243016116E7402122F06E
:10170000706242EA0462016121E7402122F07062C6
:1017100042EA0462416152E7202122F4700242EA67
:101720000452416148E7102122F4702242EA044247
:1017300041613EE7082122F4704242EA04324161ED
:1017400034E7042122F4706242EA042241612AE76C
:10175000022122F0F00242EA0412416120E7012155
:1017600022F00F022243416117E700BF806880B278
:10177000704700BFC06880B2704700BF016170470A
:10178000416170470AB9416170470161704700BF0C
:101790000028194B00F44012B4BFDB695B68B2F556
:1017A000401F30B484B21ED0C20213D50322C0F34E
:1017B0000345AA4023EA020343F0706319B1420DC6
:1017C0001201944023430C4A0028B4BFD3615360F4
:1017D00030BC7047420D120104FA02F223EA020300
:1017E00043F07063EAE7044D23F070636A6822F007
:1017F00070626A60E2E700BF0000014010B40F248D
:1018000001F0FC0303F1804303F5803301F0030191
:101810009A6889008C4022EA04029A609A6800FA69
:1018200001F11143996010BC704700BF014B186073
:10183000704700BFD8004242044A936919B923EAAD
:10184000000090617047184390617047001002409B
:10185000044AD36919B923EA0000D06170471843DC
:10186000D061704700100240274A038890429BB223
:1018700012D002F5006290420ED0B0F1804F0BD032
:10188000A2F59832904207D002F58062904203D0D0
:1018900002F58062904203D14A8823F0700313431B
:1018A0001A4A904227D002F58062904223D070B449
:1018B00023F44073CE888D880C889BB202F58C325D
:1018C000334390420380858504850ED0104B9842A7
:1018D0000BD003F54063984207D003F5806398422C
:1018E00003D003F58063984201D10B7A038601236C
:1018F00070BC8382704703808B8883850B88038547
:1019000001238382704700BF002C0140001000407B
:1019100000340140028CF0B422F001021204120CD7
:101920000D890284038C4E888488028B23F0020385
:1019300035431B0422F07302184E1B0C12040F884F
:101940002B43120CB0429BB2A4B242EA070215D05C
:10195000134DA84212D005F54065A8420ED005F5FA
:101960008065A8420AD005F58065A84206D0C988DE
:1019700084800283F0BC8186038470474E898D8900
:10198000CF8923F00803334324F440748E883D4309
:1019900023F004032C433343A4B2E8E7002C0140B6
:1019A0000034014000234FF6FF720360426003726F
:1019B000704700BF038829B923F001031B041B0CE7
:1019C000038070479BB243F001030380704700BF60
:1019D000B0F8443021B9C3F30E03A0F84430704787
:1019E0006FEA43436FEA53439BB2A0F84430704719
:1019F00083899BB21AB923EA010181817047194397
:101A000081817047038B23F008031B041B0C1943CF
:101A100001837047C94389B2018270472DE9F041C3
:101A2000082710254FF0030882B0144C02AE384648
:101A30000121FFF701FF26F8045D314620468DF8AD
:101A400007508DF80680FFF7DBFC38460121FFF7D1
:101A5000F3FE314620468DF806808DF80750ADF82C
:101A60000470FFF7CDFC29462046FFF789FE394672
:101A70002046FFF785FE02B0BDE8F081000C014072
:101A800010B50748FFF776FEC0F300140448FFF7CF
:101A900071FE030748BF44F00204204610BD00BF9A
:101AA000000C014010B5054C10212046FFF768FEE0
:101AB0002046BDE810400821FFF762BE000C01403F
:101AC00038B50F4D6B783BB9044630B142060DD4A2
:101AD000230610D400232B7338BD10210948FFF7CB
:101AE0004FFE08210748FFF74BFEF3E7102105489A
:101AF000FFF744FEECE708210248FFF73FFEE9E765
:101B0000B0100020000C014038B5124C2378022B95
:101B100004D0054604F0A6F9637803B138BD35B1A9
:101B20006A060DD42B0610D40023237338BD102170
:101B30000948FFF725FE08210748FFF721FEF3E7D4
:101B400010210548FFF71AFEECE708210248FFF7CD
:101B500015FEE9E7B0100020000C01400B4B0C49CA
:101B600010B45C1C091B03F58060CA5C03F8012FEC
:101B70009842FAD123780A2B06D04FF48062FF21D5
:101B8000044810BC09F089B810BC7047130C002041
:101B900001FC0108140C0020014B185C704700BFC9
:101BA000140C0020014B1954704700BF140C002086
:101BB0002DE9F0410646002A40D00023214F441E63
:101BC0003C448D18002B4FEAD31318BF012311F8A2
:101BD000010B0344A942DBB204F8010FF2D1164411
:101BE0001948BB55FFF720FB042801D0BDE8F08160
:101BF0004FF6FF77154D144CDFF85480AE1E35F8C4
:101C0000041CB94202D02046FFF784FB3188A01C97
:101C1000B94204F1040409D0FFF77CFB444505F107
:101C2000040506F10406EAD1BDE8F081444505F15A
:101C3000040506F10406E2D1BDE8F0811346014F28
:101C4000CEE700BF140C002000FC0108180C002097
:101C500000000208F0B4CAB100230E4F4D1E3D44EF
:101C60008618002B4FEAD31318BF012315F8014F34
:101C700000F8014B2344B042DBB2F2D11144785C4E
:101C8000F0BCC01AB0FA80F0400970471346014F0B
:101C9000F5E700BF140C002008B5002150220748CA
:101CA00008F0FBFF0649002005F08EFD00B108BDDD
:101CB0000720BDE8084004F0CBBB00BF1410002093
:101CC000401000200149024807F0F6BCD81000205F
:101CD000301000202DE9F04F0746DFF8A892482287
:101CE0000021A1B0484608F0D8FFA24B03CB1C88C6
:101CF0009A78C9F80100C9F80510A9F8094089F8CF
:101D00000B203B78242B00F02481102300220B931E
:101D1000042309920A934FF00008BD5C8DF85F2000
:101D20004446CDF82080CDF81880CDF81C80002DD9
:101D300000F0EC80A5F14106F3B2192B00F2AD8260
:101D4000531C0DF15F0118AA38468DF85F3002F080
:101D500055F8002800F0A682DDF860B05846FFF77D
:101D6000A9F95FFA80FA5046FEF74EFF0146584641
:101D7000FEF794FE8049FEF79BFF09F04BF8472DD4
:101D800082B228D04D2D40F08B80002A40F0C982CD
:101D9000BAF11E0F00F20D810123784A03FA0AF30B
:101DA000134240F09C8013F4607F40F0C28013F037
:101DB000380F00F0FE80BAF1040F00F00682BAF18D
:101DC000050F00F08E82BAF1030F00F00C824FF481
:101DD00080520C238EE0BAF15E0F00F2EA80DFE859
:101DE0001AF0D300D300D300D3005101E800E8007B
:101DF000E800E800E8003701E800E800E800E80053
:101E0000E800E8004B014B014B0116011601E80008
:101E1000E800E800E800E800E8003701E8003701E2
:101E2000E800E800E800E800E800E800E800D30087
:101E3000E800F400E800E8002601E800E800E80017
:101E4000E800E8002601E800E800E80051011C0174
:101E50001C011C011C011C011C01E8002201E800FE
:101E6000E800E800E800E800E800E800E800E80032
:101E7000E800E800E800E800E800E800E800E80022
:101E8000E8000201E800E800E800E800E800E800F7
:101E9000E800E800E8000701070137011001100120
:101EA000192E00F28680DFE816F07F01840084009E
:101EB000840084000D018400840038011D012F017D
:101EC00041018400460184004E0184005301580101
:101ED0005E018400840084006B017501FD00BAF18D
:101EE000000F6BD0BAF1010F40D04FF400620B230A
:101EF00089F808A044FA03F3D90700F10C821443CF
:101F00009DF85F20BD5C002D7FF414AF069B23B1CC
:101F1000079B002B08BF0223079318F0200F00F047
:101F20007481174BD9F824209A4240F36E811B2408
:101F300040E0BAF1080F00F04181BAF1090F00F05A
:101F4000B681BAF1070F00F047814FF400520D231C
:101F5000D0E7012389F801300993112300220B9364
:101F6000052389F802200A930322D4E64FF4006285
:101F70000B23BFE7141000200000C84207000040F8
:101F80008096980064100020079B002B40F000838F
:101F9000BAF1260F89F801A040F0BF81A2F1140325
:101FA0009BB21E2B05D8C54921FA03F3DD0700F1CA
:101FB00021811424204621B0BDE8F08F03234FF483
:101FC000006289F808300B2394E70721002A40F0CB
:101FD000A88144FA01F3D80700F19D8101238B40C9
:101FE0001C43A4B28CE75023012189F80130EDE7AE
:101FF000002A40F08781AAF15A0A89F804A0032137
:10200000E7E7CAF15E0A89F802A00521DEE7CAF116
:10201000150A89F803A00621D8E7AAF1360A89F83B
:1020200007A00921D2E7002AC3D10A21D1E7079BE3
:10203000002B40F0AD82BAF1310F00F07C810A2A0A
:10204000B7D1012389F80630032308210793C0E79D
:10205000002A40F04D81079B002B40F09982BAF195
:102060001C0F89F800A000F06381BAF11E0F00F088
:102070005F81012307930FE0AAF1110A89F805A0F7
:102080000221A3E7BAF11C0F89F800A000F020811B
:10209000BAF11E0F00F01C81BAF15C0F00F018813C
:1020A000002193E7069B4FF4805543F00403069309
:1020B0000C23C9F840B048FA03F3DB071FD445EA04
:1020C00008081DE701250023C9F80CB048FA03F3FE
:1020D000DA0714D458460021FEF788FF0028EED016
:1020E000042467E7089BC9F814B043F0020308937F
:1020F000022348FA03F3DB074FF00405DFD5192468
:10210000204621B0BDE8F08F089BC9F818B043F015
:102110000403089308250323CDE7089BC9F810B0F2
:1021200043F00103089302250123C4E789F820A0A6
:1021300010250423BFE75846FEF796FF2025C9F86F
:1021400024000523C2E7C9F828B040250623BDE7CF
:10215000C9F82CB080250723ADE7C9F830B04FF49B
:1021600080750823B2E756495846FEF75DFF002800
:1021700040F0158289F834A04FF400750923A5E7D3
:10218000069BC9F838B043F0010306934FF480650D
:102190000A2390E7069BC9F83CB043F0020306937C
:1021A0004FF400650B2386E7069BC9F844B043F063
:1021B000080306934FF400550D237CE740234FF4AA
:1021C000005289F809300D2394E620234FF4805201
:1021D00089F80A300C238DE680234FF4005289F8E9
:1021E00009300D2386E610234FF4805289F80A3017
:1021F0000C237FE6334B0121A3FB0223DB08763B54
:1022000089F8013002230793E3E6099B002B40F095
:102210008A8099F80230012B00F006812A4B5B7806
:102220003BB918F0010F40F0A580274B1B69C9F896
:102230000C3018F4807F03D1234BDB68C9F83030B1
:1022400099F80050042D00F0B48099F80530002B67
:1022500000F0A680012B40F09A8000260227109300
:1022600005230F960E970D9399F80330012B00F07C
:10227000A680079B032B00F0CC80DFF850B00DF157
:10228000700A9BE80F008AE80F00A30567D599F84C
:102290000700062857D91D248CE60124204621B0CA
:1022A000BDE8F08F0224204621B0BDE8F08F002366
:1022B0004FF4005289F809300D231BE60104104049
:1022C00000007F43CDCCCCCC141000204010002067
:1022D00012B10A2A7FF46DAE504489F80000002143
:1022E00077E600234FF4805289F80A300C2301E688
:1022F000BAF11C0F89F800A0EBD0BAF11E0F7FF4E1
:10230000CBAEE6E70A2A7FF454AEBAF15A0F3FF497
:1023100050AE04215DE615244CE60223012107930B
:1023200054E6172446E618F0010F23D1162441E69F
:1023300001230793D0E79DF81C30082189F8063067
:102340000323079345E6A94B9B79834207D0514667
:1023500005F03AFA002800F0198199F800500A2D8A
:1023600000F0E8805C2D70D1069B002B40F0468188
:102370001A241FE699F80330012B7FF45AAFD9F8DD
:102380000C009B49FEF794FCC9F80C0051E70623AA
:10239000022601270D9300230F960E97109363E7F3
:1023A0001F460E93032301260D9302230F961093CD
:1023B0005AE718F0400F40F0ED801C24FAE5069B28
:1023C000DA0707D5D9F838008949FEF771FC069B72
:1023D000C9F83800980707D5D9F83C008449FEF7BA
:1023E00067FC069BC9F83C00590707D5D9F840009F
:1023F0007F49FEF75DFC069BC9F840001A077FF590
:1024000038AFD9F844007A49FEF752FCC9F84400C5
:102410002FE799F80630012B7FF42FAF069B042B92
:102420003FF42BAF2524C5E5079B022B7FF401AFBA
:1024300099F80130502B3FF4FCAE002B3FF4F9AE7D
:1024400018F0010F3FF472AFF3E6079B032B4CD05B
:10245000069A002A49D0654999F80430C96C0C9154
:10246000002B40F01781352D134600F09E80D007D9
:1024700040F1C281D9F838101C98FEF711FB5B4B74
:10248000D96BFEF70DFB069BC9F83800990740F1A0
:10249000AE81D9F83C101D98FEF702FB534B196C26
:1024A000FEF7FEFAC9F83C00069B5A0740F1298165
:1024B000D9F840101E98FEF7F3FA4C4B596CFEF712
:1024C000EFFA0C99FEF7ECFAC9F84000069B1B07DF
:1024D00040F112811F99D9F84400FEF7E1FA434B0D
:1024E000996CFEF7DDFAC9F844001E2D00F03C811E
:1024F000352D75D01C2D00F04B8199F80150502DD1
:1025000000F03F8100230C93079B022B00F00D810C
:10251000099A002A45D028F021081FFA88F3079964
:1025200019B123F470581FFA88F3002B00F06F8163
:1025300024243FE5069B002B3FF41AAF18F0500F00
:102540003FF43BAFD9F82800FEF7B4FDC0B206282F
:102550003FF6A1AE99F82030142B06D0022B7FF461
:1025600028AD18F0800F7FF424AD28F050081FFA32
:1025700088F8002800F0B0840138C3B20C931D49DC
:102580000C9805F021F9002840F03E84072411E55D
:1025900018240FE528F040081FFA88F855E626248D
:1025A00008E5154B08EA0303B9E7D80704D40F4B35
:1025B000DB69C9F83830069B990704D40B4B1B6ABA
:1025C000C9F83C30069B5A0704D4084B5B6AC9F82B
:1025D0004030069B1D0703D4044B9B6AC9F8443066
:1025E00099F80150012D8DD91E24E3E41410002028
:1025F0003333CB4174100020DEFCFFFF8A4BDD6CCF
:10260000069BD90740F18780874B1C99D869FEF754
:1026100045FAD9F83810FEF741FAC9F83800069B98
:102620009A0773D5804B1D99186AFEF737FAD9F8C7
:102630003C10FEF733FAC9F83C00069B5B0724D533
:10264000794B1E99586AFEF729FAD9F84010FEF71F
:1026500025FA2946FEF722FAC9F84000069B1D0715
:102660005ED5714B1F99986AFEF718FAD9F8441095
:10267000FEF714FAC9F8440000230C9399F80150AE
:10268000502D7FF441AF1F2494E4674B5B6CC9F875
:102690004030E3E7352D134687D0D00740F1A280C4
:1026A000614BD9F83810D869FEF7FAF9C9F8380043
:1026B000069B990740F191805B4BD9F83C10186A52
:1026C000FEF7EEF9C9F83C00069B5A0740F19A80E4
:1026D000554BD9F84010586AFEF7E2F9C9F84000A6
:1026E000069B1B0708D5504BD9F84400996AFEF7A2
:1026F000D7F9C9F84400F8E64B4B9B6AC9F8443057
:10270000F3E6494B5B6AC9F84030DFE6464B1B6C89
:10271000C9F83C3091E7444BDB6BC9F838307EE7B1
:10272000414B9B6CC9F84430A6E7ADB10021D9F804
:102730000C00FEF751FC00287FF4F8AD8C2D00F062
:102740007D8200F27382022D00F04082032D00F0A2
:102750003F82012D7FF4DCAE069B099A002B079B7C
:1027600008BF00230793D4E63049072005F02CF872
:1027700000283FF40BAF069B93B9099A0C9307937B
:10278000C7E6069B002B7FF47EAF099A0C93C0E648
:102790002649062005F018F800283FF4F7AEEAE7CE
:1027A000D80704D4204BDB69C9F81030069B990781
:1027B00004D41D4B1B6AC9F81430069B5A0704D475
:1027C000194B5B6AC9F81830069B1D073FF554AFDB
:1027D000154B9B6AC9F81C304EE7134B1B6AC9F8AE
:1027E0003C3071E7104BDB69C9F8383060E70E4BBD
:1027F0001B6AC9F83C3057E60B4BDB69C9F8383027
:10280000134643E6084B5B6AC9F8403068E7199302
:102810001A931B9362B124F04904002C00F02B831F
:102820001024FFF7C7BB00BF141000207410002055
:10283000B34B93F858309C0714D599F80130013BFD
:10284000022B04D9099B43F04003DBB20993069B9A
:102850001BB1079B022B00F0B181AA4B5B7A102BB6
:1028600000F02883099B03F04004A649D9F82420EE
:1028700099F802308A614B7013B108238DF86C30DF
:10288000D9F80C309F4AD9F83050D06829461361E6
:102890001993FEF7A1FB002800F0A680099B98067B
:1028A00000F1A280974B587A04B91A9599F80A302A
:1028B00099F83420934983420A7507D018461A992B
:1028C00005F0FEFA99F80A308E4A53728D4A9DF847
:1028D0006C30527A99F8090013438A4A8DF86C30AB
:1028E000127A824209D0FFF70FF999F80930854A28
:1028F00013B1127A1343834A1372824A9DF86C30E3
:10290000117A99F800200B43042A8DF86C3000F0FE
:10291000488199F803307B4999F805208B70079B13
:102920000A71032B00F02781764B99F807409B79B9
:10293000A34207D09AE80F00724D8BE80F00AC71EC
:1029400006F0B0FE99F8003099F804206D49262B66
:10295000CA7000F096807CD95C2B72D0662B65D053
:10296000282B5ED099F80130664A502B137003D0A3
:10297000079A022A00F08A8099F80840614BDC71BE
:10298000002C3FF417AB03F06DFA5E4BDB79032BA1
:102990003DD00121002464225A485B4B0170197814
:1029A00004710229C47044708471447204721A72F2
:1029B0005A729A7210D000F12C01204604F004FFE4
:1029C00000283FF4E3AD06F06DFE2046002105F03F
:1029D000F5F92046FFF774F8082003F067FD00249E
:1029E000484BDC71FFF7E6BA464B587A60B1099B59
:1029F000190609D4002C00F0D980002105F060FAF6
:102A0000404BD9F83050587A3E4BDD604CE73E4B96
:102A10001B78022BE3D0082006F0AEFE03F030F85E
:102A2000DDE73A49072004F0F7FD9BE70023384A29
:102A3000A2F13C01CB6353609360D36006F032FE99
:102A400090E7334C334B0FCB84E80F0006F02AFE9F
:102A500088E71C2B34D01E2B32D00A2B82D10C9D40
:102A60002D4C2846214604F0D7FD264B9B79AB42DE
:102A70007FF478AF94E80F008BE80F0006F012FEA9
:102A800070E72249062004F0C7FD6BE7012B6BD0ED
:102A9000002B5CD0023B012B42D99DF86C301D4DC0
:102AA00043F00403099A19A928468DF86C3001F007
:102AB000E3F8E0B9154C95E80F0084E80F005BE7F8
:102AC0009DF86C3043F001038DF86C30079B1BB10F
:102AD00019A9104800F064FE0F4D0C4C284619A9A6
:102AE00000F05EFE95E80F0084E80F003AE7012849
:102AF0007FF442AF0949054806F0DEFD3CE700BF20
:102B00006C12002014100020B010002030100020A3
:102B1000501000209C10002074100020D8100020BD
:102B2000099BB34DC3F380030493109BB14C0393F3
:102B30000F9BD9F82C6002930E9B19A90193224692
:102B4000A5F128032846009600F05EFEB3E79DF845
:102B50006C30A74D43F0010319A928468DF86C305D
:102B6000A44C00F01DFEA6E7A14D19A9284600F0CF
:102B700017FEA04C9FE799F806304B7113B900235C
:102B8000C9F84030D9F840409B4B2146D86CFEF73D
:102B900023FA00287FF4C8AE974BDC6406F082FD70
:102BA000C2E6D9F8280001F031F8B2E6294605F06E
:102BB00087F9914BD9F83050587A25E7099B63F093
:102BC0007F03DBB2099303F040044EE60A9B0993AE
:102BD000069B002B3FF4CCAB0D9A134202D120246C
:102BE000FFF7E8B9844B09EB870203EB8703D96948
:102BF000906BFDF753FF804B09EB860203EB8603D6
:102C00000A90D969906BFDF749FF18F080050B9089
:102C10005BD028F080081022754976481FFA88F8A2
:102C200008F02CF818BB2124FFF7C4B98E2D05D06D
:102C300002D38F2D7FF46CAC0B9B099305F17203CB
:102C4000DBB2012B04D8099B43F00803DBB20993E4
:102C5000069B002B3FF48CAB10226549654808F0B9
:102C60000DF80028DFD0099B03F0010251E499F828
:102C70000330012B06D1D9F82C006049FEF718F873
:102C8000C9F82C00D9F82C100846FEF711F84FF0BF
:102C90008141FEF70DF805460A980146FEF708F84F
:102CA00001462846FDF7FAFE05460B980146FDF75A
:102CB000FFFF01462846FDF7F1FE00210546FEF71D
:102CC00095F948B12224FFF775B9089B0D9A134274
:102CD0004AD12324FFF76EB9284608F0FFF80B9974
:102CE00005460A9801F05AF905F1004501462846C3
:102CF000FEF792F899F801300546032BD9F82C30ED
:102D000008BF00F10045002118460893FEF76EF950
:102D1000089B28B103F1004305F10045C9F82C30A8
:102D20000B992846FDF7C4FF01460A98FDF7B6FE49
:102D30004FF07C51FDF7BCFF023709EB8707B86005
:102D40000A992846FDF7B4FF0B99FDF7A9FE4FF04D
:102D50007C51FDF7ADFF0236099B09EB860603F0B7
:102D60000102B060FFF7D5BB99F8033028F00E08D8
:102D7000012B1FFA88F800F0B480B51C09EB85051B
:102D8000A9680B98FDF78AFE0646023709EB87070C
:102D9000B9680A98FDF782FE314601F0FFF8A9688C
:102DA0000646B86801F0FAF8074630463946C9F8D1
:102DB0002C70FDF773FE20F0004528461049FEF701
:102DC00033F900283FF44FAF4FF07C512846FEF70F
:102DD0002BF900287FF427AF0A493846FDF768FF32
:102DE00001462846FEF720F900287FF41CAF3AE799
:102DF0009C10002030100020141000203333CB41F1
:102E00000AD7A33B6F12833A01221192002299F84C
:102E1000203014941293434B1596DB6C1446139395
:102E2000414B424D1E46069B43FA04F1C80704D5A8
:102E3000129B142B0CD0A96A2960119B042B17D06C
:102E4000119901340131CBB2119304360435EAE70C
:102E5000316A3068FDF722FEA96AFDF71FFE022CD9
:102E60002860EAD11399FDF719FEC9F81800E7E7C1
:102E7000149C159E02E499F80030352B02D0002BEB
:102E80007FF4CEAC274A274B117A5B7AD2680B438A
:102E900019A827498DF86C301A9200F04FF80446B3
:102EA00000287FF487A8234B1F4D0FCB85E80F0028
:102EB000FFF780B81B4B099A1B78013B022B134686
:102EC0002AD812F040043FF4D0AC43F02003DBB228
:102ED000099303F04004C8E499F807300C93FFF716
:102EE0004EBB124B0D9626461C46134A089B43FACE
:102EF00005F111F0010F05F1010506D0114620681A
:102F00001192FDF7D5FE119A2060042D04F10404FE
:102F1000ECD134460D9E30E712F040047FF4A5ACAE
:102F2000D3E700BF141000203010002074100020E0
:102F3000641000209C1000203333CB4170B505464F
:102F4000037AC86843F00403124A28602B7292F88F
:102F5000583001F138049B0606D5204606F0D0FB18
:102F600010B10F24204670BD0B4E2046294600F0BC
:102F700017FC347814B10024204670BD01F01CFA0F
:102F80000028F8D02023337005F0E2FB05F044F868
:102F9000204670BD6C120020B010002030B5012119
:102FA00085B009204FF47044FEF746FC4823032205
:102FB00004A9204D21F8104D1F488DF803308DF8DD
:102FC0000220FEF71DFA95F858301B0706D44FF47F
:102FD00080721A4BC3F8842005B030BD0C2101204B
:102FE000FEF70CFC0D210120FEF708FC0E2101204C
:102FF000FEF704FC0F210120FEF700FC95F8583085
:10300000002213F0400F14BF08210C21012302A855
:103010008DF80D108DF80C208DF80E300294FEF70F
:10302000A5F8074B04A840F80C3DFEF76DF805B075
:1030300030BD00BF6C120020000C014000E100E038
:10304000280202014FF48072014BC3F884207047BC
:1030500000E100E010B51348FEF788FB124B93F82F
:1030600058305B065CBF80F4704080B2C8B10F4A34
:1030700013885488184207BF00230221012303212B
:10308000204208BF1946948841F00403204208BF3B
:103090000B46D28803F0FF03104243F0080008BF3C
:1030A000184610BD000C01406C12002028C000081A
:1030B00008B54FF48050FEF797F888BB4FF40050E6
:1030C000FEF792F838BB4FF48040FEF78DF8E8B970
:1030D0004FF40040FEF788F898B94FF48071134A16
:1030E000134BC2F884111B78012B02D0114B1B78B3
:1030F00003B108BD00F052FEBDE80840012006F013
:103100004FBB4FF40040FEF77DF8E6E74FF48040F8
:10311000FEF778F8DCE74FF40050FEF773F8D2E7DB
:103120004FF48050FEF76EF8C8E700BF00E100E002
:10313000B0100020E81000202DE9F04FDFF8B88231
:1031400095B098F8013013B115B0BDE8F08F044682
:103150000625A249079004F00104086849680F9306
:103160000BAA0D930E9304F0FF0303C28DF83C509D
:103170000993002C40F0DA804FF00009984E079B2D
:10318000C3F34003069353B19649706BFDF790FD6E
:10319000054601464846FDF73DFF00B9A946079B95
:1031A000C3F38003059353B18E49B06BFDF780FDE7
:1031B000054601464846FDF72DFF00B9A946079B85
:1031C000C3F3C003049353B18649F06BFDF770FD60
:1031D000054601464846FDF71DFF00B9A946E3B282
:1031E0000393336ECDF804901A46042301249146CC
:1031F000DFF8FCA17C4D7D4F02937D4910A806F0BD
:103200005BFA039B002B00F08B810021B6F85A205B
:10321000CAF80010D30740F19D81002C40F09D8139
:10322000019B109302210120BDF82CB0069B8BB1AD
:103230000023B6F85A00CAF80430800740F18281B2
:10324000002C40F08281019B11930846BDF82EE0CE
:103250004BEA0E0B059B93B10023B6F85A100130D0
:103260004907C0B2CAF8083040F17C81002C40F018
:103270007C81019B1293BDF830104BEA010B049B3B
:1032800093B10023B6F85A1001300A07C0B2CAF849
:103290000C3040F16F81002C40F06F81019B139343
:1032A000BDF832304BEA030BFDF7AAFC07F016FE1F
:1032B000A8F806B001464846FDF7FAFC0DA90D90A6
:1032C00010A801F067F9042388F8043005F040FAEB
:1032D00004F0A2FEDFF82491002C40F0918005F06C
:1032E00037FA2B7813F0340F40F0D7801BF00F0F14
:1032F000F2D105F0B5F8B6F8640000F03FFE84F0B6
:103300000102002C40F01081B46E3A492046089228
:10331000FDF7CEFC029B0190591E11F0FF03D6F879
:103320005C900293089A10D0144666E72C4E2D4903
:10333000306BFDF7BDFC00218146FDF76BFE0028D8
:103340007FF41DAF4FF0000919E7A146099BB6F8BD
:103350005A406BB1E00740F11D81316B4846FDF7E3
:103360009FFB3168FDF7A4FC07F054FDCAF800008C
:10337000069B6BB1A10740F11581716B4846FDF7C3
:103380008FFB7168FDF794FC07F044FDCAF8040058
:10339000059B6BB1620740F10D81B16B4846FDF7AB
:1033A0007FFBB168FDF784FC07F034FDCAF8080024
:1033B000049B6BB1230740F10581F16B4846FDF793
:1033C0006FFBF168FDF774FC07F024FDCAF80C00F0
:1033D000002388F8043015B0BDE8F08F30C0000835
:1033E0006C1200200000C0BFC510002028C00008DB
:1033F000D81000200000A040B0100020000C0140B8
:103400004846FEF7B3F996F858305B065CBF80F487
:10341000704080B2002837D03B887A88184214BFA9
:10342000012300231042BA8818BF43F00203104260
:10343000FA8818BF43F004031042BDF82C2018BFCF
:1034400043F008031BEA020F03D0D90748BF2BEA59
:10345000020BBDF82E201BEA020F03D0980748BFCD
:103460002BEA020BBDF830201BEA020F03D05907EC
:1034700048BF2BEA020BBDF832201BEA020F03D033
:10348000DB0818BF2BEA020BA8F806B005F060F9BC
:103490002B7813F0340F3FF429AF95F800905FFAC2
:1034A00089F919F0100F6DD119F0200F0CD184B1EA
:1034B00019F0040F6AD14A4B1B78002B40F08A8028
:1034C000042006F063F914E7072006F069F9002CE0
:1034D000EED14448FEF74AF996F858305B065CBFD7
:1034E00080F4704080B20028E5D03B887A8818428A
:1034F00014BF012300231042BA8818BF43F002030F
:103500001042FA8818BF43F004031042079A18BF0C
:1035100043F008031A42CED0082006F041F9CAE76A
:103520009B461846012181E6029BD6F86090591E01
:10353000B36E019311F0FF0302937FF4F5AEDDF853
:10354000049003E7002C7FF47EAE019B03F1004062
:1035500011907AE6002C7FF463AE019B03F10042E8
:1035600010925FE6002C7FF484AE019B03F10041D2
:10357000129180E6002C7FF491AE019B03F1004391
:1035800013938DE6062006F00BF98DE7092006F06F
:1035900007F990E7316809F10040FDF789FB07F072
:1035A00039FCE3E6716809F10040FDF781FB07F0A3
:1035B00031FCEBE6B16809F10040FDF779FB07F05B
:1035C00029FCF3E6F16809F10040FDF771FB07F013
:1035D00021FCFBE600F0E2FB02F052FAB4E500BF8A
:1035E000E8100020000C014010B506F089F8C8B1C1
:1035F00001230D4C2078E370082808D000F0CEFBA2
:10360000022006F0CDF8BDE8104002F039BA06F00D
:10361000B3F802E02378002BF0D002F031FA63789F
:10362000002BF7D010BD00BFB01000202DE9F04FE7
:10363000012183B01020FEF7FFF84FF40050102353
:10364000022202A921F8040D00F1804000F570402B
:103650008DF807308DF80620FDF7D2FE07F03AF816
:1036600007F044F806F0EAFDFDF7D2FDFEF776FA22
:103670002B494FF064080A682A4D22F004020A60C0
:1036800003F092FE04F018FA04F08EFF05F0C4FD7A
:1036900000210C46244A254892F85820244EDFF891
:1036A0009CB0DFF89CA0DFF89C90224FC2F3001280
:1036B000016041608160C1601F4B8BF80040AC60CD
:1036C0008AF800402C6089F800402A701C706C60F9
:1036D000EC602C6185F8088085F8098085F80A80FF
:1036E00034607460B460F4603C7003F073FFFEF704
:1036F000D3FA04F07DFAFEF791F9FFF74FFC01F0E1
:1037000025FC00F017FE04F0ABFE01F0A5F9FEF772
:10371000D9FA02F029FF02F0E1FD2A78CCE700BFD8
:1037200010E000E0B01000206C120020D810002043
:10373000C8100020C4100020AC100020C6100020CB
:10374000C5100020E810002042F22831094B30B4A7
:10375000002501241A4601FB00F058609D601C60A2
:10376000136803F00113012BFAD0002330BC13605F
:103770009360704710E000E010B5074C4FF4005123
:1037800022780648FDF7FEFF237813F1FF3318BFB8
:103790000123237010BD00BF000000200010014075
:1037A000F8B5174D0E4695F8583007469906154C52
:1037B00004D52378202B0AD0FFF716FF2378022B9D
:1037C00005D1F8BD00F026FE38B101F02DFC02F065
:1037D00057F96378002BF5D0F3E73846314600F00F
:1037E000D9FE0028EDD195F858309A07E9D5337AFB
:1037F000DB06E6D571681020BDE8F84004F060BB38
:103800006C120020B01000202DE9F04F1F4691B03F
:103810009DF86C40834653F82450A300D6180F90AF
:103820000B91284652F824100296FE1807920C9627
:10383000FDF736F99DF87060079A57F82680B300B7
:103840001F4452F8261082461A44039040460492C0
:103850000D97FDF725F95146814605905BF8240048
:10386000FDF71CF9494604465BF82600FDF716F9FA
:1038700005F10045064621462846FDF719FA08F1EC
:103880000048074631464046FDF712FA01463846E1
:10389000FDF706F9314681462846FDF709FA21462B
:1038A00006464046FDF704FA01463046FDF7F6F8B5
:1038B000494607F011FB9DF8787006461A9C9DF862
:1038C0007490002F00F0D080FCF7A6FDA8A3D3E9E8
:1038D000002382468B46FDF779F8002840F0E98006
:1038E000DFF8B0B22146DBF84C702046FDF7D8F87F
:1038F0003946FDF7D3F83946FDF7DAF907F0EEFA65
:103900004FF07C5107462046FDF7D2F93146FDF7CE
:10391000CFF9394620F00040FDF77EFA07F03AFA79
:10392000FDF7C8FB83B20193002B00F06B810B9B6A
:1039300001981C7A220700F1AE80FDF765F9074671
:1039400039464FF07E50FDF767FA0446014630468F
:10395000FDF7AEF9079B0F9A53F8291007460E9012
:1039600052F82900FDF79AF82146FDF7A1F93946EA
:1039700006903846FDF79CF9014604464FF080401A
:10398000FDF78CF8804906463846FDF791F9214647
:1039900007467E48FDF782F801463846FDF788F96C
:1039A000079B08904FF07C51304603EB8907FDF7E9
:1039B0007FF9019B0990012B00F0248101264FF033
:1039C0000009734CB9F10B0F00F2E6802946089804
:1039D000FDF76EF9414682460998FDF769F90146FF
:1039E0005046FDF75DF8294682460998FDF760F9D3
:1039F000414605460898FDF75BF901462846FDF764
:103A00004DF8D046054609F101095FFA89F9039995
:103A10002846FDF745F8029B059918604046FDF7DA
:103A20003FF8049B069918603868FDF739F838604C
:103A30009BF858309B0605D52378202B0CD007988F
:103A4000FFF7D2FD2378022B06D151E000F0E2FC13
:103A5000002839D001F0E8FA02F012F86378002B60
:103A6000F4D011B0BDE8F08FFCF7D6FC42A3D3E947
:103A7000002382468B46FCF79FFF00283FF430AFBF
:103A80003FA3D3E9002350465946FCF767FBFCF7F8
:103A9000B1FF064624E7FDF7B7F80B9B0146074642
:103AA0001868FDF705F90B9B24F0080418601C72D8
:103AB00046E733A3D3E9002350465946FCF74CFBB5
:103AC000FCF798FF06460BE7DDF82CA00798514657
:103AD00000F060FD60B99BF85830980708D59AF857
:103AE0000830D90604D50B9B1020596804F0E8F97A
:103AF0006378002BB5D10136019AB3B29A423FF6F2
:103B000061AF9BF85830990605D52378202B0FD04C
:103B10000F98FFF769FD2378022BA2D001F0B0FFC8
:103B20006378002B9DD100F075FC50B101F07CFA58
:103B300001F0A6FF6378002B93D100F06BFC002806
:103B4000F4D10B9C0F98214600F024FD002888D169
:103B50009BF858309A0784D5237ADB0681D510204C
:103B60000B9B596811B0BDE8F04F04F0A9B900BF34
:103B70008DEDB5A0F7C6A0BE8DEDB5A0F7C6A03EF1
:103B8000182D4454FB211940ABAA2A3E0000C04026
:103B9000B01000206C1200203046FDF735F80E9969
:103BA000FDF786F8054607F0C1F88046284607F07D
:103BB0005DF90C9B82461B68404603F100431946A1
:103BC0000A930D9BD3F80090FDF772F8494605461D
:103BD0005046FDF76DF801462846FCF761FF0A9B49
:103BE000054619465046FDF763F849468246404669
:103BF000FDF75EF801465046FCF750FF4FF0000914
:103C0000804604E7004C7CE7B0100020074B1B788F
:103C1000022B09D010B5044602F024F92046BDE875
:103C20001040002100F072B9704700BFB0100020B2
:103C300008B5FFF707FA0420FFF77EFA0320FFF725
:103C40007BFA0820FFF778FA01F01AFF084B5B783F
:103C50006BB9FEF737F800F0FFFE4FF47040FDF748
:103C6000D1FA4FF48072034BC3F884215A6008BD27
:103C7000B010002000E100E02DE9F041424C237833
:103C8000022B0CD017460E46054602F0EBF894F8CE
:103C90000180B8F1000F05D00220BDE8F0810020BE
:103CA000BDE8F081C7F3C00084F8058001F074F925
:103CB00001F086F940B1042005F072FD01F0E0FE4C
:103CC000404601F069F9E7E7DFF8CC8098F8583012
:103CD000980605D52378202B0BD02846FFF784FCC7
:103CE0002378022B05D109E000F094FB70B301F0BA
:103CF0009BF901F0C5FE6378002BF5D00123234D1D
:103D000002202B7005F038FD01F0BAFE6378002B1D
:103D1000C2D12378002BF7D12B78012B28D0012397
:103D20006371002318462B7001F036F901F0A8FEEC
:103D300004F096FB00F0FEFA00F08EFE02F016FF93
:103D40006079003018BF0120BDE8F0812846314677
:103D500000F020FC0028D1D198F858309907CDD533
:103D6000337ADA06CAD57168102004F0A9F8C5E7DD
:103D7000FB0605D5064B074E0FCB86E80F00D0E7B4
:103D8000052005F00DFDCCE7B0100020C610002086
:103D9000D8100020C81000206C12002008B5144B69
:103DA0001B78DB0600D508BD102005F0E5FC03F00C
:103DB000AFFFFDF777FE0F4A137813F02C0F08D0F2
:103DC000042B0CD0032005F0EBFCBDE8084004F008
:103DD00063B9127912F0060FE5D0042BF2D1064B2D
:103DE0001B78002BF1D1062005F0DAFCEDE700BFCF
:103DF000C5100020B0100020E81000202DE9F04F81
:103E00000C7883B0035D04442D2B65D02B2B68D038
:103E10004FF00008651C002634463746B6460CE0D5
:103E20000134E4B2082C11D80EB1013F7FB20EEB81
:103E30008E0E03EB4E0E15F8013B303BDBB2092B27
:103E4000EED9FE2B07D136B90126F4E7002EF2D1C8
:103E500001377FB2EFE7002C37D0824670460191E0
:103E60009146FCF7CDFE00218346FDF7B5F808BB6F
:103E7000791C12DA3E46224C58462146FCF718FFC0
:103E8000B31C5EB2721C8346F6DBFFB2C7F1FE03C1
:103E900003F0FE031F4402377FB27B1C26D04FB1D4
:103EA000184C58462146FCF703FF013F7FB283467A
:103EB000002FF6D1B8F1000F0BD10124A5EB0A05B4
:103EC000019B013DC9F800B01D70204603B0BDE85C
:103ED000F08F0BF1004BF0E7A51C63784FF0010861
:103EE00099E74FF000086378A51C94E75846064907
:103EF000FCF7DEFE8346B8F1000FDED0E9E700BF35
:103F00000AD7233C00002041CDCCCC3D70B50E46F5
:103F10001849FCF7CDFE06F0C9FEFDF7CBF880B2DC
:103F2000B0B1154D6B789BB9441EA4B28EB14FF65B
:103F3000FF7608E0013C3220A4B2FFF705FCB44252
:103F400006D06B78ABB901F079F8AB789B07F1D567
:103F500070BD4FF6FF7601E06B784BB9013C01F084
:103F60008FFDA4B23220FFF7EFFBB442F4D1EFE7AC
:103F700070BD70BD0000A041B010002060B138B528
:103F80004FF6FF75441EA4B2013C0120A4B2FFF716
:103F9000DBFBAC42F8D138BD704700BF38B50D46E9
:103FA0000146FCF785FE294604462846FCF780FEBC
:103FB00001462046FCF774FDBDE8384006F08EBF90
:103FC000F8B504464768002138462668A568FDF71D
:103FD00003F800284ED139463846FCF769FE002127
:103FE00007462846FCF7F8FF00284AD1294628460C
:103FF000FCF75EFE01463846FCF752FD00210546FF
:104000003046FCF7E9FF00283FD131463046FCF747
:104010004FFE01462846FCF743FDE56807460021B0
:104020002846FCF7D9FF00282DD129462846FCF761
:104030003FFE3946FCF734FD06F050FF07460146C7
:104040004FF07E50FCF7E8FE31460546FCF730FEA7
:10405000294620606068FCF72BFE29466060A06856
:10406000FCF726FE2946A060E068FCF721FEE06030
:104070003846F8BD002128460027FCF7ADFF002890
:10408000B4D00021B7E70020D3E70021C2E700BF8A
:10409000F8B50C680D46064600212046FCF79CFF4B
:1040A000002840D121463068FCF7B6FE20F00044DD
:1040B00020462149FCF7A4FF002834D06F68002176
:1040C0003846FCF789FF50B939467068FCF7A4FE02
:1040D00020F0004739462046FCF792FF50B3AF6806
:1040E00000213846FCF778FF50B93946B068FCF734
:1040F00093FE20F0004739462046FCF781FFB8B117
:10410000ED6800212846FCF767FF50B92946F068A2
:10411000FCF782FE20F0004529462046FCF770FFA0
:1041200018B12046F8BD044CC8E72C462046F8BD1F
:104130003C46E5E73C46D2E7FFFF7F7F2DE9F04FA5
:10414000774B83B01B780093002B75D0754A5C1EAB
:1041500092F80080E4B2A04501926AD0724DC4EB9F
:10416000C40705EBC707796A386AFCF7A1FD014669
:10417000FCF796FCD7F81CB08146594607F1180A9F
:10418000FCF73EFF00B9D946CAF800904FF0230B68
:10419000002C6FD0009B023B5FFA83FB6AE0604B10
:1041A0001B780093CBEBCB030BF10104E4B205EBDE
:1041B000C30A019B242C08BF002493F800B02EE012
:1041C000DAF81890D7F8188048464146FCF70EFFF9
:1041D000A8B1DAF82410DAF82000FCF769FD0146EE
:1041E000FCF75EFC4946FCF75BFC81460146404615
:1041F000FCF71AFF18B1C846A346C7F81890321B3F
:1042000005EBC202D0694146FCF7E6FE631C0028BC
:1042100018BFA346DCB2242C08BF0024BA46009B7A
:10422000E600371B9C4205EBC707C9D1019B83F809
:1042300000B003B0BDE8F08F3A4B93F800800193D3
:10424000B8F1230FF5D0384DD5F8C817D5F8CC07FD
:10425000FCF72EFD0146FCF723FCD5F8C477044695
:104260003946FCF7CDFE00B93C464FF0220B2F4FEC
:10427000C5F8C047D84545D0DFF8B49029E05FFACB
:1042800082FB99F800205A4533D0C6EBC60605EBF1
:10429000C60ADAF81C60DAF818003146FCF79CFE12
:1042A00098B9DAF82410DAF82000FCF701FD01468D
:1042B000FCF7F6FBB969FCF7F3FB0746014630460D
:1042C000FCF7B2FED8B1CAF81870C34527463FF4D0
:1042D00066AFCBEBCB040BF1FF3205EBC4045E46BB
:1042E000BBF1000FCBD14FF0230B99F800205A45BA
:1042F000CBD104F017FA019B93F80080C5E7CAF808
:104300001860E2E70A4A12785A457FF44BAF04F08E
:1043100009FA034B1B780093019B93F800B041E727
:10432000E0090020E109002000020020A809002087
:10433000E209002038B524220021074806F0ADFC30
:1043400000230121054D064C0648074A2B702370B7
:104350000370117038BD00BFE4090020E20900209D
:10436000E0090020E1090020E309002009490A4B87
:104370000A781B7893420CD0531CDBB2242B08BF65
:10438000002310B405480B700478944208BF0370F2
:1043900010BC7047E2090020E0090020E10900207C
:1043A000034B04481B78C3EBC30300EBC300704707
:1043B000E009002000020020064B074A1B78127813
:1043C0009A421DBF0548C3EBC30300EBC3000020A6
:1043D000704700BFE2090020E00900200002002031
:1043E000094B0A4A1B7812780133DBB2242B08BF31
:1043F00000239A4206D0064AC3EBC30302EBC30371
:104400009869704700207047E2090020E009002009
:1044100000020020044A054B10781B78C01AB0FA3D
:1044200080F04009704700BFE2090020E309002046
:1044300038B5837D056BDA0714D5164B587AFCF72F
:10444000E3FB1549FCF734FC2946FCF731FC044634
:104450004FF07E512046FCF7DDFD08B94FF07E5449
:10446000204638BD5B0704460BD40A4B187AFCF78C
:10447000CBFB0949FCF71CFC01462846FCF718FC5D
:104480000546E46A29462046FCF7BAFD0028DFD13C
:104490002C46DDE7B01000200AD7233C2DE9F04F71
:1044A000354D364A364B83B0287A147893F800B0ED
:1044B000FCF7AAFB3349FCF7FBFB0190687AFCF799
:1044C000A3FB3049FCF7F4FB2F4F0090DFF8C0A0AE
:1044D0004FF07E5923E041460098FCF7E9FB054682
:1044E00049462846FCF796FD00B94D462946384610
:1044F000D6F82880FCF77AFD002831D039463846B6
:10450000FCF7D6FB074641463846FCF78DFD20BB3D
:10451000F7610134E4B2242C08BF00242F465C4527
:1045200024D0E5002E1B0AEBC606B37DD6F83080FA
:10453000DA07D0D45B0704D440460199FCF7B8FBF6
:1045400080462D1B0AEBC505ED6A41462846FCF75F
:1045500057FD0028C4D14546C2E7C6F81C80D8E7FD
:1045600029462846FCF7A4FB0746CCE7074B1F6209
:1045700003B0BDE8F08F00BFB0100020E2090020BA
:10458000E00900200AD7233CFFFF7F7FE4090020D9
:10459000000200202DE9F04F8B468246664B674DA6
:1045A0001E7893B0F700A7EB060805EBC808382281
:1045B0000021404606F071FB9BF80830DBF8042030
:1045C000980788F81630DFF880914CBF5C4B5D4B44
:1045D000C8F8342006AC0FCB84E80F00D9F80020CF
:1045E000DAF8001010460192FCF762FB06F012FCAC
:1045F0008646B91B0698C9006B18AEEB00001A6915
:1046000080EAE074A4EBE07494426C5038BF144626
:104610001C610093CDF808E0FCF7F6FA019A114608
:10462000FCF7FAFB00210A90FCF7E0FC009B002855
:1046300040F07381D9F80420DAF804101046019292
:10464000FCF736FB06F0E6FB01460798BB1B081A91
:1046500080EAE07EAEEBE07E744538BF744605EB41
:10466000C303C3F804E01C6100930391FCF7CCFA88
:10467000019A1146FCF7D0FB00210B90FCF7B6FC29
:10468000009B002840F05581D9F80820DAF808107E
:1046900010460192FCF70CFB06F0BCFB01460898A3
:1046A000BB1B081A80EAE07EAEEBE07E744538BFA3
:1046B000744605EBC303C3F808E01C610093049142
:1046C000FCF7A2FA019A1146FCF7A6FB00210C9018
:1046D000FCF78CFC009B002840F02581D9F80C30B9
:1046E000DAF80C1018460093FCF7E2FA06F092FB99
:1046F00002460998A7EB060A101A80EAE071A1EBBE
:10470000E0718C4238BF0C4605EBCA0ACAF80C109F
:10471000CAF810400592FCF777FA009B1946FCF79F
:104720007BFB00210D90FCF761FC78B9BCB92046F9
:1047300013B0BDE8F08F00BFE009002000020020A8
:10474000D8100020E40900206C120020994ABAF821
:104750001430D2881343AAF81430002CE7D00AACE6
:104760002046FFF72DFCA7EB060A05EBCA0ACAF89C
:10477000240021469048FFF78BFC2146CAF8200010
:104780008E48FFF785FC9AF81630CAF82C00D90736
:1047900000F1D580DBF800101A07CAF8301007D5F1
:1047A000DAF824000093FCF783FA009BCAF8300083
:1047B000834A844912780978914200F0C3809B07AC
:1047C00000F1C080804BDDF828A0D3F810B050462F
:1047D0005946FCF76DFA594600F1004350460093E4
:1047E000FCF75CF9784BDDF82CA0D3F814B00E90F0
:1047F00059465046FCF75CFA009B01461846FCF708
:104800004DF9594601905046FCF748F96E4BDDF8DA
:1048100030B09B690F90194658460093FCF748FA50
:10482000019A01461046FCF739F9009B8246194669
:104830005846FCF733F9644BDDF834B0DB6910906F
:10484000594618460093FCF733FA01465046FCF7E8
:1048500025F9009B824619465846FCF71FF95B492B
:1048600011905046FCF7E0FB002800F098800022F1
:10487000BB1B05EBC3039A62BB1B05EBC3039A7D0D
:10488000900766D4D107D3F8309066D5504B587A4C
:10489000FCF7BAF94946FCF70BFA4E49FCF708FA5F
:1048A00005464FF07E512846FCF7B4FB08B94FF09F
:1048B0007E55454E2946D6F82090D8F828704846AF
:1048C000FCF794FB002864D049464846FCF7F0F911
:1048D000814639464846FCF7A7FB002856D1C8F860
:1048E0001C903D4ADFF8FCE0117836484B1CDBB2E7
:1048F000242B08BF002302AF35620170137094E8C7
:104900000F008EE80F0097E80F0086E80F00FFF712
:1049100015FC012013B0BDE8F08F264A998A128851
:104920000A439A8286E623499A8A89880A439A82A8
:10493000D4E6204A998A52880A439A82A4E6CAF8A1
:10494000300035E70022BB1B05EBC3039A619A6276
:1049500092E7012013B0BDE8F08F53070AD41C4B37
:10496000187AFCF751F94946FCF7A2F91949FCF706
:104970009FF98146BE1B05EBC605ED6A49462846F0
:10498000FCF73EFB00288CD14D468AE7C8F81C7026
:10499000A7E729462846FCF78BF9814699E70F4996
:1049A0005046FCF723FBF8B1BB1B0D4A05EBC303D4
:1049B0009A6261E720C000088C1200207C1200205F
:1049C000E2090020E0090020E4090020EFFF7F3F1A
:1049D000B01000200AD7233CE3090020EFFF7FBF7F
:1049E000FFFF7F7FF40900200EA8FFF7E9FA0EA968
:1049F0001848FFF74DFB514600904FF07E50FCF7F2
:104A00004DF84FF07C51FCF753F906F067FA8346F6
:104A1000009B59461846FCF74BF9D9F84810FCF7AB
:104A200047F9594681464FF07E50FCF737F801466A
:104A30004846FCF7F1F9A7EB060A002105EBCA0A84
:104A40008146FCF7E7FA08B94FF00009CAF8289048
:104A500012E700BF8C12002010B4034B034C0FCBA5
:104A600084E80F0010BC7047D8100020E409002033
:104A7000064A074B12781B789A422CBF03F1230099
:104A800003F1FF30801AC0B2704700BFE009002078
:104A9000E209002008B503F045FE044A044B1278F1
:104AA0001A70BDE80840FFF749BB00BFE2090020CB
:104AB000E109002010B50446007828B102F076FC28
:104AC00014F8010F0028F9D110BD00BF632870B59C
:104AD000054620D91C48A0FB05304009303002F0C3
:104AE00065FC1A48A0FB0534E408E3B2A0FB0320F0
:104AF000C00800EB8000A3EB40003030C0B202F0F1
:104B000055FC04EB8400A5EB40003030C0B2BDE89A
:104B1000704002F04BBC092805D8BDE87040303029
:104B2000C0B202F043BC0A26B0FBF6F404F1300038
:104B3000C0B202F03BFC06FB1450BDE870403030C0
:104B4000C0B202F033BC00BF1F85EB51CDCCCCCC42
:104B5000F0B50D4685B000210646FCF747FA00285F
:104B600052D1012D56D92C462F4F30463946FCF7ED
:104B70009FF8023CE4B2012C0646F6D805F001038A
:104B800023B130462949FCF793F806464FF07C5193
:104B90003046FBF785FFFCF767FA00283CD000227F
:104BA000234EA6FB0013DB0803EB8301A0EB4100BF
:104BB000541C04A930300A44E4B202F8100C224616
:104BC0001846002BEDD1A54228D96A1E121BD2B27D
:104BD00001320DEB0400302106F05FF8302204AB07
:104BE0006C1C2B4403F8102CE4B25CB10DEB0406F2
:104BF000A54215D016F8010D013C02F0D7FB14F0C8
:104C0000FF04F5D105B0F0BD2D2002F0CFFB06F179
:104C10000046A6E72B46B3E70446D4E7E5D1DDE737
:104C20002E2002F0C3FBE5E70000C842000020414F
:104C3000CDCCCCCC30B56E4B85B093F85830DB077B
:104C400052D400210446FCF7D1F9002840F0A88096
:104C500068492046FCF72CF84FF07C51FBF720FF09
:104C6000FCF702FA002800F0A1800021624D00E06C
:104C70002146A5FB0023DB0803EB8302A0EB4200E7
:104C800004AA30304C1C0A4402F8100CE4B2184656
:104C9000002BEDD1022C16D830228B1C04A8DBB2DD
:104CA0000444032B04F8102C07D00344FF2903F815
:104CB000102C02D130238DF80230302304241D46FD
:104CC0008DF8033005E0032CF7D004AB234413F830
:104CD000115C013CE4B2022C7BD0284602F066FB5A
:104CE000002CF2D105B030BD4449FBF7E1FF0021B3
:104CF0000446FCF77BF900285ED141492046FBF7CA
:104D0000D7FF4FF07C51FBF7CBFEFCF7ADF9002845
:104D100058D00021384D00E02146A5FB0023DB08D8
:104D200003EB8302A0EB420004AA30304C1C0A447F
:104D300002F8100CE4B21846002BEDD1032C1ED85B
:104D400030228B1C04A8DBB20444042B04F8102C82
:104D50000FD00331C9B20344042903F8102C08D042
:104D6000302304AA0A44022902F8103C01D18DF82C
:104D70000330302305241D468DF8043005E0042C53
:104D8000F7D004AB234413F8115C013CE4B2032CCC
:104D900026D0284602F00AFB002CF2D105B030BD27
:104DA0002D2002F003FB04F1004451E730238DF87D
:104DB00000308DF801307DE72D2002F0F7FA04F184
:104DC00000449AE7302302218DF800308DF801303D
:104DD000C6E72E2002F0EAFA284602F0E7FA74E766
:104DE0002E2002F0E3FA284602F0E0FAC9E700BFFD
:104DF0006C12002000007A44CDCCCCCC8B42213DFB
:104E000000401C4670B54D4B84B093F85830DB071A
:104E100035D400210446FCF7E9F800287BD14FF097
:104E20007C512046FBF73CFEFCF71EF900286DD0B4
:104E30000022434DA5FB0013DB0803EB8301A0EB2D
:104E40004100541C04A930300A44E4B202F8100CAA
:104E500022461846002BEDD1002C57D004AB1A4443
:104E600012F8110C013CE4B26D466C4401E014F8F8
:104E7000010D02F09BFAAC42F9D104B070BD31498A
:104E8000FBF716FF00210446FCF7B0F8002848D1D4
:104E90002D492046FBF70CFF4FF07C51FBF700FE3D
:104EA000FCF7E2F8A0B10021254CA4FB0032D208A7
:104EB00002EB8203A0EB430004AD4B1C30302944CD
:104EC000DBB201F8100C19461046002AEDD173BB75
:104ED00030238DF800303022022316468DF8012051
:104EE0005C1EE5B26D4400E05C1E304602F05EFAE6
:104EF000E3B2012B15F8016DF6D12E2002F056FA1F
:104F0000304604B0BDE8704002F050BA30200124B1
:104F10008DF80000A6E72D2002F048FA04F10044C5
:104F20007DE72D2002F042FA04F10044B0E7012BA6
:104F3000D1D0294411F8116CD2E700BF6C120020C7
:104F4000CDCCCCCC8B42213D0000204110B50121BD
:104F500082B04FF400740820FCF76EFC0322482353
:104F600002A921F8044D09488DF806208DF8073074
:104F7000FCF746FA0021064A064B92F958201980A0
:104F80008A42A8BF1C8002B010BD00BF000C0140C7
:104F90006C120020EA10002000230749074A91F90B
:104FA000581013809942AABF4FF400714FF4007358
:104FB000118000B1138070476C120020EA100020AD
:104FC00008B50548FCF7D2FB044B00F400701B88C1
:104FD000181A18BF012008BD000C0140EA1000207B
:104FE00038B50B48FCF7C2FB0A4B00F400701B8875
:104FF00083420CD00021084A084D094B094C11701E
:105000000FCB84E80F002B7843F040032B7038BDA2
:10501000000C0140EA100020C6100020C51000203E
:10502000D8100020C810002008B5FFF7C5F920B13E
:10503000BDE80840022004F09FBB08BDF8B5AC4BAA
:105040001B78002B4FD1AB4CAB4D2B7803F0FF05F9
:1050500093B3EE0600F1D680E80700F1F18015F079
:10506000E80F0AD02378990700F0F0806EB2002E86
:10507000C0F26181E82004F089FBAB0719D515F077
:10508000680F13D12378402B00F06D81002B40F086
:105090003B8100232371FFF78FF920B1A37813F030
:1050A000400300F098810023A3702370022004F0D5
:1050B0006DFB690700F1A980904B1B7803F0FF0599
:1050C000002B67D18E4B1B7803F0FF05DBB92378EB
:1050D00013F0FC0F03D1F8BD15F0C00F47D1BDE8A8
:1050E000F84003F035BB012603F0FF05814C28464C
:1050F000013D267001F0C4F9B54240F222817E4D97
:1051000004F056FBA1E704F077FBA27A15F0010F3B
:105110000CBF13466423A80744BF0A33DBB26907F8
:1051200044BF0A3BDBB22F0744BF0133DBB2EE06BC
:1051300044BF03F1FF33DBB2C82B28BFC8230A2BBF
:1051400038BF0A239A4206D000212279A37242F086
:10515000080323712173A806237802D5102B00F0D1
:10516000BD8015F0C00FB3D0002B40F0DF80654F3D
:105170002A063E7A00F1F080680605D571064CBF1C
:1051800006F0BF0646F040063046FCF799FC23784F
:105190003E729DE704F028FB217A15F0010F0CBF49
:1051A0000B466423AE0744BF0A33DBB2680744BF33
:1051B0000A3BDBB22F0744BF0133DBB2EE0644BF2C
:1051C00003F1FF33DBB2C82B28BFC8230A2B38BF3B
:1051D0000A23607A15F0200F14BF6422024615F0EE
:1051E000400F18BF322215F0800F18BF19229942C4
:1051F00023D00021237262722173FFF74FF9FFF76A
:1052000049FC5FE701236370F8BD237813F0D00FEA
:1052100002D0E378002B51D0A3781F0652D413F0AC
:10522000200236D0402203F07F0343F00103A37035
:105230002270042004F0AAFA3EE78242D9D141E765
:1052400001F0AEFE012004F0A1FA08E713F0280FE8
:1052500022D133BB0122A2706A0600F19A802F0787
:105260006EB201D510232370A8067FF500AF06208B
:1052700001F01CF9A378190607D42278402A00F01F
:10528000B980802A01D04022227043F02003A3700D
:10529000EDE6A2702270CCE7A27812F0C00F00F009
:1052A00089806AB26806164602D5990640F1AA803E
:1052B0002F07D9D513F0E00FD6D1D3E794F90230F8
:1052C000002B59DA00232371FFF734F803F0C8F8F4
:1052D000FCF7F8FCFFF7C0FBA378A0E7E37A002B0C
:1052E0005CD10223E37215F0C00F7FF440AFF6E605
:1052F000E8100020B0100020C5100020AC100020E5
:10530000C410002014100020DA067FF5CFAEA2787A
:10531000D0077FF5CBAE102B7FF4BBAEE37A002B2A
:105320003FF4B7AE43F00803E372BFE613F0180F83
:105330003FF4CEAE1BE72378012B36D080232370B9
:1053400098E6304601F0B2F8102004F01FFA2F4D15
:105350002B78DF06FCD5D3E633064CBF06F07F067C
:1053600046F0800608E7A37813F020027FF49EAE93
:10537000DF0638D522708CE6FFF78CFB23799A077D
:1053800003D5A27842F00102A27023F00603237134
:105390004FE741216AB21646A17089E7D9077FF528
:1053A0009BAE43F00403E3729DE7A37843F005034B
:1053B000A370C3E703F0B6F9022223782271202BF1
:1053C0007FF447AF6EB2002EFFF64EAFA37863F0C6
:1053D0007F03A37048E70822A370227003F0B8F996
:1053E00002F01AFE62E65E077FF560AE43F0080346
:1053F000A3705BE61A077FF546AF23F01C0343F06A
:10540000020340E7A17841F04001C4E7C510002045
:105410002DE9F04F83B0FEF7CFFF002800F0E082C7
:10542000837DD0F834800193BA4E96F858309B07AC
:1054300000F1A7820025B84CA378002B00F09A80D9
:105440006278002A40F09680DF071AD5217811F0A3
:10545000C00000F0928013F0040B00F07C818029E2
:1054600000F0D282402900F06882180709D5DFF8E1
:10547000BCA29AF80910002900F0D581990740F1E3
:105480002782A64B1B7803F0FF0B002B40F08A808D
:10549000A34F3B7803F0FF0B002B54D01BF0100FF1
:1054A00040F026811BF0010F40F075811BF0E80FE2
:1054B0000CD02378980700F074814FFA8BF9B9F17A
:1054C000000FC0F29D81E82004F060F91BF0020F8C
:1054D00019D01BF0680F13D12378402B00F04882BD
:1054E000002B40F0028200232371FEF765FF20B1FC
:1054F000A37813F0400300F07C820023A370237094
:10550000022004F043F91BF0040F1CD0237813F0A1
:10551000D00F00F00D81E378002B40F0098194F961
:105520000230002BC0F2FD81FFF7B4FA23799F0708
:1055300003D5A27842F00102A27023F006030420F2
:10554000237104F023F9774B1B7803F0FF0B002B3A
:1055500036D1754B1B7803F0FF0B002B74D12378E9
:1055600013F0FC0F3FF468AF03F0F2F8A378002BC0
:105570007FF466AF03B0BDE8F08FE37A002B00F054
:10558000BA809F0740F1F780684B5B7A002B40F0B0
:10559000E9810023E372614B1B7803F0FF0B002BC2
:1055A0003FF476AF012758460BF1FF3B277000F020
:1055B00067FFBB4540F28181594F04F0F9F868E775
:1055C00004F012F91BF0010F18BF6423227A607AED
:1055D00008BF13461BF0020F1CBF0A33DBB21BF0DF
:1055E000040F1CBF0A3BDBB21BF0080F1CBF0133CA
:1055F000DBB21BF0100F1CBF03F1FF33DBB2C82B73
:1056000028BFC8230A2B38BF0A231BF0200F14BF62
:10561000642101461BF0400F18BF32211BF0800FA0
:1056200018BF19219A4201D1884292D000222372D8
:1056300061722273FEF732FFFFF72CFA3A4B1B78A8
:1056400003F0FF0B002B8AD004F0D6F81BF0010FFB
:1056500018BF6423A27A08BF13461BF0020F1CBFB9
:105660000A33DBB21BF0040F1CBF0A3BDBB21BF09A
:10567000080F1CBF0133DBB21BF0100F1CBF03F17E
:10568000FF33DBB2C82B28BFC8230A2B38BF0A233D
:105690009A4206D000212279A37242F008032371B6
:1056A00021731BF0200F237802D0102B00F04F81C4
:1056B0001BF0C00F3FF454AF002B40F0D680DFF852
:1056C0006CA01BF0800F9AF8089040F0DA801BF075
:1056D000400F06D019F0400F14BF09F0BF0949F080
:1056E00040094846FCF7ECF923788AF8089037E738
:1056F00001236370A0E623791A077FF5C2AE019BF0
:10570000414603F0300002F059FB237923F00803EF
:105710002371B6E66C120020B0100020E8100020C3
:10572000C5100020AC100020C41000201410002070
:10573000A378180600F1F58013F0200200F09280A3
:10574000402203F07F0343F00103A3702270042082
:1057500004F01CF8F7E62946584684F80BB002F02E
:105760002DFB5846FCF7ACF9A37823F0020343F075
:105770000403A37085E613F00C0F3FF482AEBE4A1B
:10578000527A002A40F00D8119077FF502AF0220FE
:1057900003F0F2FFFDE601F003FC012003F0F6FF49
:1057A00084E613F0280F7CD0A27812F0C00F70D0DE
:1057B0001BF0400F4FFA8BF902D0990640F1578148
:1057C0001BF0080F03D013F0E00F00F0A7801BF0D0
:1057D000200F3FF474AE062000F068FEA3781A068E
:1057E00007D42178402900F0F380802901D040219E
:1057F000217043F02003B9F1000FA370BFF663AE30
:105800002378012B00F0DD80802323705BE6019B71
:10581000414603F0300002F0D1FA01214FF08140FF
:10582000FEF774FBA3789AF8082003F002017AB11E
:1058300000297FF426AE019B03F04000FCF740F9FD
:1058400001214FF07E50FEF761FBA37803F00201C7
:1058500000297FF416AE43F010030220A37003F07A
:105860008BFF0EE6A270227071E713F0180F3FF461
:1058700077AEDFF804A21BF0800F9AF808903FF48F
:1058800026AF19F0800F14BF09F07F0949F0800995
:105890001DE702F047FF022223782271202B00F03F
:1058A000DB80002B84D101221BF0400FA2704FFA45
:1058B0008BF92FD04121A17082E7384600F0F6FD28
:1058C000102003F063FF6D4F3B78DB06FCD574E6D8
:1058D00096F858108A079AD521799AF8080041F06D
:1058E000080222710028B6D0A5E7DA067FF508AED7
:1058F000A278D2077FF504AE102B7FF4F4ADE37AE3
:10590000002B3FF4F0AD43F008030220E37203F0F4
:105910003DFFF8E51BF0080F3FF459AF102323704B
:1059200055E700232371FEF705FD02F099FDFCF712
:10593000C9F9FFF791F8A378FEE603F00BFDA37811
:1059400000287FF492AD03F0DF03A3708DE5E37AC6
:10595000DBB902231BF0C00FE3727FF4B0AE02F09C
:10596000F7FE03E6294602F029FA0123E37288E5EF
:10597000A37813F020027FF4C3ADD8065DD5227062
:10598000B1E5202003F026FF54E5D90702D543F006
:105990000403E3721BF0C00F7FF491AE02F0D8FE57
:1059A000E4E50A2000F082FD96F8583098074BD5C0
:1059B0002279E37A42F00802190722717FF5E9ADF6
:1059C000E5E6A37843F00503A370802323707AE50E
:1059D0001F077FF50CAF23F01C0343F0020306E71B
:1059E000254B5F7A1A7AD3F80C8047EA02030193B9
:1059F0001AE50822A370227002F0AAFE02F00CFB46
:105A0000022003F0C3FE7EE50B20019200F04EFD64
:105A1000019A0021104602F0D1F9019A1046FCF7D4
:105A20004FF802F039FB6378002B7FF4A3ADFFF74A
:105A300005FB6378002BFAD09CE559077FF560AD34
:105A400043F00803A3705BE5019B414603F030007F
:105A500002F0B4F9E37A97E64FFA8BF9B9F1000F47
:105A6000FFF6B5AEA37863F07F03A370AFE6A1782D
:105A700041F04001A170A3E614100020C5100020E1
:105A8000F8B5AB4B1B78002B56D1AA4CAA4D2B78FE
:105A900003F0FF0593B3EE0600F1DD80E80700F1A7
:105AA000F88015F0E80F0AD02378990700F0F78006
:105AB0006EB2002EC0F26981E82003F067FEAB07EA
:105AC00019D515F0680F13D12378402B00F075819C
:105AD000002B40F0438100232371FEF76DFC20B1C1
